:100000000C9458000C9480000C9480000C94800098
:100010000C9480000C9480000C9480000C94800060
:100020000C9480000C9480000C9480000C94800050
:100030000C9480000C9480000C9480000C94800040
:100040000C9412060C9480000C9482060C945C06AE
:100050000C9480000C9480000C9480000C94800020
:100060000C94B4060C9480000000000025002800C9
:100070002B00040404040404040402020202020229
:10008000030303030303010204081020408001025C
:1000900004081020010204081020000000080002DB
:1000A0000100000304070000000000000000D30767
:1000B00011241FBECFEFD8E0DEBFCDBF11E0A0E01E
:1000C000B1E0E4E4F2E102C005900D92A236B1077E
:1000D000D9F722E0A2E6B1E001C01D92AF3EB2071F
:1000E000E1F710E0C8E5D0E004C02197FE010E94CE
:1000F0001A09C735D107C9F70E941A080C942009BC
:100100000C94000090E0FC01E656FF4F2491FC01A6
:10011000EA57FF4F3491FC01EE58FF4FE491EE2374
:10012000C9F0222339F0233001F1A8F4213019F16C
:10013000223029F1F0E0EE0FFF1FE859FF4FA591A3
:10014000B4918FB7F894EC91611126C030953E239D
:100150003C938FBF08952730A9F02830C9F0243090
:1001600049F7809180008F7D03C0809180008F7758
:1001700080938000DFCF84B58F7784BDDBCF84B5DB
:100180008F7DFBCF8091B0008F778093B000D2CF6E
:100190008091B0008F7DF9CF3E2BDACF3FB7F89436
:1001A0008091AB019091AC01A091AD01B091AE01F5
:1001B00026B5A89B05C02F3F19F00196A11DB11DC2
:1001C0003FBFBA2FA92F982F8827BC01CD01620FFE
:1001D000711D811D911D42E0660F771F881F991FB9
:1001E0004A95D1F7089508950895AF92BF92CF929E
:1001F000DF92EF92FF920F931F93CF93DF936C01E7
:100200007B018B01040F151FEB015E01AE18BF08C7
:10021000C017D10759F06991D601ED91FC91019079
:10022000F081E02DC6010995892B79F7C501DF9191
:10023000CF911F910F91FF90EF90DF90CF90BF90E3
:10024000AF900895FC01538D448D252F30E0842F0D
:1002500090E0821B930B541710F0CF9608950197EE
:100260000895FC01918D828D981761F0A28DAE0FDB
:10027000BF2FB11D5D968C91928D9F5F9F73928F62
:1002800090E008958FEF9FEF0895FC01918D828D8E
:10029000981731F0828DE80FF11D858D90E008955B
:1002A0008FEF9FEF0895FC01918D228D892F90E0B3
:1002B000805C9F4F821B91098F739927089585E277
:1002C00092E00E94530121E0892B09F420E0822F63
:1002D000089580E090E0892B29F00E945F01811150
:1002E0000C9400000895FC01A48DA80FB92FB11D36
:1002F000A35ABF4F2C91848D90E001968F7399275C
:10030000848FA689B7892C93A089B1898C91837039
:1003100080648C93938D848D981306C00288F38932
:10032000E02D80818F7D80830895EF92FF920F935F
:100330001F93CF93DF93EC0181E0888F9B8D8C8D91
:1003400098131AC0E889F989808185FF15C09FB785
:10035000F894EE89FF896083E889F9898081837048
:10036000806480839FBF81E090E0DF91CF911F91F7
:100370000F91FF90EF900895F62E0B8D10E00F5F18
:100380001F4F0F731127E02E8C8D8E110CC00FB6EE
:1003900007FCFACFE889F989808185FFF5CFCE0186
:1003A0000E947301F1CFEB8DEC0FFD2FF11DE35A8D
:1003B000FF4FF0829FB7F8940B8FEA89FB89808109
:1003C0008062CFCFCF93DF93EC01888D8823B9F083
:1003D000AA89BB89E889F9898C9185FD03C0808150
:1003E00086FD0DC00FB607FCF7CF8C9185FFF2CFCD
:1003F000808185FFEDCFCE010E947301E9CFDF91AF
:10040000CF91089520918301260F3327331F213286
:100410003105ECF42091FB01FC0190E080E02430F8
:1004200069F082E00895A09183012191AC014D59BA
:100430005E4FA40FB52FB11D2C930196861798F32C
:1004400080918301680F6093830180E0089581E0CB
:1004500008951092FB0181E08093FA011092D5017A
:1004600061E082E10E94820061E083E10E948200FB
:10047000E9EBF0E080818E7F808380818D7F8083B7
:1004800088E48093B80085E48093BC000895CF93FE
:10049000DF9391E0909362018823B9F0C091B80096
:1004A000D091BA008091BC008A7B8093BC0060E050
:1004B00082E10E94820060E083E10E9482000E944B
:1004C0002902D093BA00C093B800DF91CF9108956C
:1004D0008F929F92AF92BF92CF92DF92EF92FF9254
:1004E0000F931F93CF93DF93D0912402D13208F062
:1004F000D7C0182FC09123020E94CE006B017C014F
:100500008091FB0181116BC082E08093FB0110930D
:10051000FA018FEF8093F9011092F801D093F7015F
:10052000A3E0B2E0E7EDF1E080E0D81391C01092D3
:10053000D6018091D601CC0FC82BC093D6018091F3
:10054000D501813009F088C01092D5010E94CE00FB
:100550006B017C018091D6018093BB008091FD01ED
:100560009091FE01A091FF01B0910002892B8A2B8E
:100570008B2BA1F00E94CE000091FD011091FE0195
:100580002091FF01309100026C197D098E099F09AD
:10059000061717072807390708F442C08091BC00E6
:1005A00083FDD8CF85EC8093BC000E94CE006B0108
:1005B0007C018091FB01823009F450C08091F901E7
:1005C0008F3F09F46FC08091F901803209F46CC04B
:1005D0008091F901803309F469C084E026C08091DC
:1005E000FD019091FE01A091FF01B0910002892BC5
:1005F0008A2B8B2B09F484CF0E94CE008090FD01C2
:100600009090FE01A090FF01B09000026C197D094E
:100610008E099F0986169706A806B90608F070CFBE
:100620008091FC010E94470285E010920202109224
:10063000240210920102DF91CF911F910F91FF9040
:10064000EF90DF90CF90BF90AF909F908F900895E4
:100650009D9191938F5F69CF85EEA5CF8091FD012C
:100660009091FE01A091FF01B0910002892B8A2B8D
:100670008B2B09F49ECF0E94CE000091FD011091BA
:10068000FE012091FF01309100026C197D098E0955
:100690009F09061717072807390708F08ACFC0CF28
:1006A00081E0C3CF80E0C1CF82E0BFCF83E0BDCF88
:1006B0000F931F93CF93DF938A01E901209711F4E1
:1006C000C2ECD2E091E09093010280932302109259
:1006D000020210922402E881F9810190F081E02D5C
:1006E000CE010995E881F9810190F081E02DD801D2
:1006F0006C91CE01099581E00E94680291E0811120
:1007000090E0892FDF91CF911F910F910895089567
:10071000E091B0018091AF01E81730F4F0E0EF54C0
:10072000FE4F808190E008958FEF9FEF08959091A4
:10073000B0018091AF012FEF3FEF981748F4E92FF8
:10074000F0E0EF54FE4F208130E09F5F9093B001C6
:10075000C90108958091AF019091B001891B990B57
:100760000895CF92DF92EF92FF920F931F93CF9352
:10077000DF937C01CB018A0120910102222389F0C1
:10078000EB016B01C40ED51ECC15DD0569F0699136
:10079000D701ED91FC910190F081E02DC701099501
:1007A000F3CF642F0E940202C801DF91CF911F9105
:1007B0000F91FF90EF90DF90CF900895CF93DF934C
:1007C0001F92CDB7DEB76983209101022223F9F091
:1007D00020912402203258F021E030E0FC013383E4
:1007E000228390E080E00F90DF91CF910895809177
:1007F0000202E82FF0E0ED5FFD4F998190838F5F5B
:10080000809302028093240281E090E0ECCF61E0CB
:10081000CE0101960E940202F7CF90E080E0089599
:10082000CF93DF93FC0101900020E9F73197AF01EE
:10083000481B590BBC0185E292E00E94F500EC01D7
:1008400042E050E064E271E085E292E00E94F5004F
:100850008C0F9D1FDF91CF9108953F924F925F9231
:100860006F927F928F929F92AF92BF92CF92DF92C0
:10087000EF92FF920F931F93CF93DF93382E6A016D
:100880007901E8018FB7F8948090D1019090D2015E
:10089000A090D301B090D4018FBF209711F4C2EC87
:1008A000D2E081E080930102309223021092020292
:1008B00010922402E881F9810190F081E02DCE01AF
:1008C000099581E00E9468020E94CE002B013C0144
:1008D0008091FB01811164C081E08093FB018093D2
:1008E000FA019FEF9093F9011092F8011092F7012D
:1008F0008093D6018091D601330C382A3092D601EC
:100900008091D501813009F093C01092D5010E94E9
:10091000CE002B013C018091D6018093BB008091D9
:10092000FD019091FE01A091FF01B0910002892B81
:100930008A2B8B2BA1F00E94CE000091FD0110911B
:10094000FE012091FF0130910002641975098609AA
:100950009709061717072807390708F442C080913E
:10096000BC0083FDD8CF85EC8093BC000E94CE00F4
:100970002B013C018091FB01813009F45BC0809127
:10098000F801811179C08091F801E7EDF1E0A1EB68
:10099000B1E090E0981751F121912D939F5FFACF2C
:1009A0008091FD019091FE01A091FF01B0910002A4
:1009B000892B8A2B8B2B09F48BCF0E94CE000091C0
:1009C000FD011091FE012091FF0130910002641998
:1009D000750986099709061717072807390708F0C8
:1009E00077CF8091FC010E94470280E01092B00115
:1009F0008093AF0110E02701712C612CE881F9810F
:100A00000084F185E02DCE010995892B09F475C08C
:100A1000E114F10499F5E881F9810284F385E02D70
:100A2000CE010995F601E10FF11D80831F5FE6CF2E
:100A300085EE9ACF8091FD019091FE01A091FF017A
:100A4000B0910002892B8A2B8B2B09F493CF0E9443
:100A5000CE000091FD011091FE012091FF01309127
:100A600000026419750986099709061717072807F0
:100A7000390708F07FCFB5CF81E087CF2FB7F89443
:100A80008091D1019091D201A091D301B091D40174
:100A90002FBF88199909AA09BB0984159505A605D0
:100AA000B70508F4B8CF2FB7F8948091D101909191
:100AB000D201A091D301B091D4012FBF8819990917
:100AC000AA09BB09A70170E060E084179507A60793
:100AD000B707B8F4812FDF91CF911F910F91FF904D
:100AE000EF90DF90CF90BF90AF909F908F907F90CE
:100AF0006F905F904F903F900895E114F10451F38F
:100B0000D2CF1111E7CF1FEFE5CF9F92AF92BF92E7
:100B1000CF92DF92EF92FF920F931F93CF93DF93C9
:100B200000D0CDB7DEB7C82EB62E942EA22ED02E72
:100B3000870128EE33E0AE014E5F5F4F0E942D0427
:100B40008823B1F1892D8A19990BAC014F5F5F4F52
:100B500081E090E002C0880F991FAA94E2F7019704
:100B6000042E01C0880F0A94EAF72D2D01C0220F30
:100B70004A95EAF7D82ED0949A81D92282238D29DA
:100B80008A8389839701AE014F5F5F4F6B2D8C2D58
:100B90000E9458030F900F90DF91CF911F910F91FA
:100BA000FF90EF90DF90CF90BF90AF909F9008950F
:100BB00080E0F0CF85ED8093BC008091FD019091A5
:100BC000FE01A091FF01B09100020796A11DB11D89
:100BD00023E0B695A795979587952A95D1F720910B
:100BE000BC0024FD03C01092FB0108954091FD015B
:100BF0005091FE016091FF0170910002452B462B40
:100C0000472B69F30097A105B10541F02AE22A9527
:100C1000F1F700C00197A109B109E1CF8091FC0172
:100C20000C9447021F920F920FB60F9211242F932C
:100C30003F938F939F93AF93BF938091D1019091F6
:100C4000D201A091D301B091D4013091AA0123E047
:100C5000230F2D3758F50196A11DB11D2093AA0130
:100C60008093D1019093D201A093D301B093D4018A
:100C70008091AB019091AC01A091AD01B091AE011A
:100C80000196A11DB11D8093AB019093AC01A0937F
:100C9000AD01B093AE01BF91AF919F918F913F9104
:100CA0002F910F900FBE0F901F90189526E8230FDD
:100CB0000296A11DB11DD2CF1F920F920FB60F92B7
:100CC00011242F933F934F935F936F937F938F9351
:100CD0009F93AF93BF93EF93FF9385E292E00E94BF
:100CE0007301FF91EF91BF91AF919F918F917F9190
:100CF0006F915F914F913F912F910F900FBE0F9089
:100D00001F9018951F920F920FB60F9211242F93D8
:100D10008F939F93EF93FF93E0913502F09136020A
:100D20008081E0913B02F0913C0282FD1BC09081EA
:100D300080913E028F5F8F7320913F02821741F0B6
:100D4000E0913E02F0E0EB5DFD4F958F80933E0217
:100D5000FF91EF919F918F912F910F900FBE0F9068
:100D60001F9018958081F4CF1F920F920FB60F92AB
:100D700011242F933F934F935F936F937F938F93A0
:100D80009F93AF93BF93EF93FF938091B900887FB8
:100D9000803609F44AC0F0F5883209F4A7C018F586
:100DA000803109F49BC0B8F4882309F4F9C0883075
:100DB00009F494C0FF91EF91BF91AF919F918F91F2
:100DC0007F916F915F914F913F912F910F900FBE47
:100DD0000F901F901895883109F488C0803251F720
:100DE0008093F90114C0803409F49DC040F480332D
:100DF000B9F38833F9F68093F90185ECB0C08035FA
:100E000009F485C0883509F496C0883499F60E94A3
:100E1000DA05D0CF883909F48CC038F5883729F045
:100E200050F4883611F0803729F683E08093FB0177
:100E30001092A50157C0883809F47BC0803919F099
:100E4000803809F0B7CF8091A501803208F071C0D9
:100E5000E091A50181E08E0F8093A5018091BB00F8
:100E6000F0E0EB57FE4F80833DC0803B39F0E0F46B
:100E7000803A09F479C0883A09F09CCF84E08093E5
:100E8000FB011092840110928301E091A801F0917E
:100E9000A90109958091830181110FC081E08093A0
:100EA00083011092630109C0803C09F4A6CF883CFD
:100EB00009F4A3CF883B09F07DCFE091840181E064
:100EC0008E0F80938401F0E0ED59FE4F8081809376
:100ED000BB00909184018091830129C08091D6014B
:100EE0008093BB0085EC8093BC0064CF9091F801A7
:100EF0008091F701981758F5E091F80181E08E0F85
:100F00008093F801F0E0E952FE4F8081E9CFE09153
:100F1000F80181E08E0F8093F8018091BB00F0E032
:100F2000E952FE4F80839091F8018091F701981764
:100F3000C8F285E8D8CFE091F80181E08E0F809368
:100F4000F8018091BB00F0E0E952FE4F8083809170
:100F5000FA0181115CCF81E08093D50184EA80930E
:100F6000BC001092FB0126CF85EC8093BC00109250
:100F7000FB018091A501803230F4E091A501F0E001
:100F8000EB57FE4F10826091A50170E0E091A60141
:100F9000F091A70185E891E009951092A5010ACF8B
:100FA0001092F90134CFE5E2F2E01382128288EE6A
:100FB00093E0A0E0B0E084839583A683B78324E028
:100FC00031E03183208325EC30E03587248724EC21
:100FD00030E03787268720EC30E0318B208B21EC06
:100FE00030E0338B228B22EC30E0358B248B26ECE7
:100FF00030E0378B268B118E128E138E148EE2EC1E
:10100000F2E01382128284839583A683B78386E1FC
:1010100091E091838083EEECF2E088E68083128297
:10102000118288EF9AE2A0E0B0E0818B928BA38BD3
:10103000B48B0895CF93DF9300D0CDB7DEB778940B
:1010400084B5826084BD84B5816084BD85B58260CD
:1010500085BD85B5816085BD80916E00816080937E
:101060006E001092810080918100826080938100E7
:1010700080918100816080938100809180008160F7
:10108000809380008091B10084608093B100809152
:10109000B00081608093B00080917A00846080937A
:1010A0007A0080917A00826080937A0080917A0041
:1010B000816080937A0080917A00806880937A00C2
:1010C0001092C100E0913502F091360282E08083F7
:1010D000E0913102F09132021082E0913302F091FE
:1010E00034028FEC808310923D02E0913902F0913E
:1010F0003A0286E08083E0913702F09138028081E5
:1011000080618083E0913702F091380280818860AD
:101110008083E0913702F09138028081806880837B
:10112000E0913702F091380280818F7D80831092A8
:10113000B0011092AF0110920202109224020E949C
:10114000290283EF90E09093A9018093A80184EF96
:1011500090E09093A7018093A601E090CF02F090D9
:10116000D00201E023E042E06BE68091CE020E94D3
:101170008505E090CF02F090D00200E022E044E04C
:101180006BE18091CE020E948505E090CF02F09045
:10119000D00222E044E06CE18091CE020E948505FD
:1011A000C090CF02D090D002F090CE02860128EEFF
:1011B00033E0AE014F5F5F4F6BE68F2D0E942D0431
:1011C00089818F7B89838A839601AE014E5F5F4F51
:1011D0006BE68F2D0E9458030091CF021091D00230
:1011E00028EE33E0AE014F5F5F4F65E78091CE029E
:1011F0000E942D04882339F089818E7790E095959F
:1012000087958093D1028091D102843381F487E263
:1012100091E00E94100400E010E001151105E9F3CF
:101220000E945F018823C9F30E940000F6CF87E483
:1012300091E0EFCFEE0FFF1F0590F491E02D0994A0
:04124000F894FFCF50
:10124400000000009501F5002201E2015301310183
:10125400450100000000DE03B1030D048703AA0367
:10126400970388030D0A004D5055363035302063FE
:101274006F6E6E6563746564207375636365737301
:1012840066756C6C792E004D5055363035302063C0
:101294006F6E6E656374696F6E206661696C6564F8
:0212A4002E001A
:00000001FF
